{
  "_format": "hh-sol-artifact-1",
  "contractName": "SendEther",
  "sourceName": "src/backend/contracts/SendEther.sol",
  "abi": [
    {
      "anonymous": false,
      "inputs": [
        {
          "indexed": false,
          "internalType": "string",
          "name": "func",
          "type": "string"
        },
        {
          "indexed": false,
          "internalType": "uint256",
          "name": "gas",
          "type": "uint256"
        }
      ],
      "name": "Log",
      "type": "event"
    },
    {
      "anonymous": false,
      "inputs": [
        {
          "indexed": false,
          "internalType": "address",
          "name": "from",
          "type": "address"
        },
        {
          "indexed": false,
          "internalType": "address",
          "name": "receiver",
          "type": "address"
        },
        {
          "indexed": false,
          "internalType": "uint256",
          "name": "amount",
          "type": "uint256"
        },
        {
          "indexed": false,
          "internalType": "string",
          "name": "message",
          "type": "string"
        },
        {
          "indexed": false,
          "internalType": "uint256",
          "name": "timestamp",
          "type": "uint256"
        },
        {
          "indexed": false,
          "internalType": "string",
          "name": "keyword",
          "type": "string"
        }
      ],
      "name": "Transfer",
      "type": "event"
    },
    {
      "inputs": [
        {
          "internalType": "address payable",
          "name": "receiver",
          "type": "address"
        },
        {
          "internalType": "uint256",
          "name": "amount",
          "type": "uint256"
        },
        {
          "internalType": "string",
          "name": "message",
          "type": "string"
        },
        {
          "internalType": "string",
          "name": "keyword",
          "type": "string"
        }
      ],
      "name": "addToBlockChain",
      "outputs": [],
      "stateMutability": "nonpayable",
      "type": "function"
    },
    {
      "inputs": [],
      "name": "getAllTransactions",
      "outputs": [
        {
          "components": [
            {
              "internalType": "address",
              "name": "sender",
              "type": "address"
            },
            {
              "internalType": "address",
              "name": "receiver",
              "type": "address"
            },
            {
              "internalType": "uint256",
              "name": "amount",
              "type": "uint256"
            },
            {
              "internalType": "string",
              "name": "message",
              "type": "string"
            },
            {
              "internalType": "uint256",
              "name": "timestamp",
              "type": "uint256"
            },
            {
              "internalType": "string",
              "name": "keyword",
              "type": "string"
            }
          ],
          "internalType": "struct SendEther.TransferStruct[]",
          "name": "",
          "type": "tuple[]"
        }
      ],
      "stateMutability": "view",
      "type": "function"
    },
    {
      "inputs": [],
      "name": "getTransactionCount",
      "outputs": [
        {
          "internalType": "uint256",
          "name": "",
          "type": "uint256"
        }
      ],
      "stateMutability": "view",
      "type": "function"
    },
    {
      "inputs": [],
      "name": "transactionCount",
      "outputs": [
        {
          "internalType": "uint256",
          "name": "",
          "type": "uint256"
        }
      ],
      "stateMutability": "view",
      "type": "function"
    }
  ],
  "bytecode": "0x608060405234801561001057600080fd5b5061113b806100206000396000f3fe608060405234801561001057600080fd5b506004361061004c5760003560e01c806327506f53146100515780632e7700f01461006f578063b2da09601461008d578063b77bf600146100a9575b600080fd5b6100596100c7565b6040516100669190610b1a565b60405180910390f35b61007761030a565b6040516100849190610b4b565b60405180910390f35b6100a760048036038101906100a29190610d19565b610313565b005b6100b1610608565b6040516100be9190610b4b565b60405180910390f35b60606001805480602002602001604051908101604052809291908181526020016000905b8282101561030157838290600052602060002090600602016040518060c00160405290816000820160009054906101000a900473ffffffffffffffffffffffffffffffffffffffff1673ffffffffffffffffffffffffffffffffffffffff1673ffffffffffffffffffffffffffffffffffffffff1681526020016001820160009054906101000a900473ffffffffffffffffffffffffffffffffffffffff1673ffffffffffffffffffffffffffffffffffffffff1673ffffffffffffffffffffffffffffffffffffffff168152602001600282015481526020016003820180546101d490610de7565b80601f016020809104026020016040519081016040528092919081815260200182805461020090610de7565b801561024d5780601f106102225761010080835404028352916020019161024d565b820191906000526020600020905b81548152906001019060200180831161023057829003601f168201915b505050505081526020016004820154815260200160058201805461027090610de7565b80601f016020809104026020016040519081016040528092919081815260200182805461029c90610de7565b80156102e95780601f106102be576101008083540402835291602001916102e9565b820191906000526020600020905b8154815290600101906020018083116102cc57829003601f168201915b505050505081525050815260200190600101906100eb565b50505050905090565b60008054905090565b6103526040518060400160405280600b81526020017f7265636569766572203d200000000000000000000000000000000000000000008152508561060e565b6103916040518060400160405280600981526020017f616d6f756e74203d200000000000000000000000000000000000000000000000815250846106aa565b6103d06040518060400160405280600a81526020017f6d657373616765203d200000000000000000000000000000000000000000000081525083610746565b61040f6040518060400160405280600a81526020017f6b6579776f7264203d200000000000000000000000000000000000000000000081525082610746565b60016000808282546104219190610e48565b9250508190555060016040518060c001604052803373ffffffffffffffffffffffffffffffffffffffff1681526020018673ffffffffffffffffffffffffffffffffffffffff16815260200185815260200184815260200142815260200183815250908060018154018082558091505060019003906000526020600020906006020160009091909190915060008201518160000160006101000a81548173ffffffffffffffffffffffffffffffffffffffff021916908373ffffffffffffffffffffffffffffffffffffffff16021790555060208201518160010160006101000a81548173ffffffffffffffffffffffffffffffffffffffff021916908373ffffffffffffffffffffffffffffffffffffffff160217905550604082015181600201556060820151816003019080519060200190610560929190610828565b506080820151816004015560a0820151816005019080519060200190610587929190610828565b5050507f416cfa4330a4565f45c2fd2dd4826a83a37443aba2ce6f79477c7355afac35fa3385858542866040516105c396959493929190610f56565b60405180910390a17fdd970dd9b5bfe707922155b058a407655cb18288b807e2216442bca8ad83d6b55a6040516105fa9190611011565b60405180910390a150505050565b60005481565b6106a6828260405160240161062492919061103f565b6040516020818303038152906040527f319af333000000000000000000000000000000000000000000000000000000007bffffffffffffffffffffffffffffffffffffffffffffffffffffffff19166020820180517bffffffffffffffffffffffffffffffffffffffffffffffffffffffff83818316178352505050506107e2565b5050565b61074282826040516024016106c092919061106f565b6040516020818303038152906040527fb60e72cc000000000000000000000000000000000000000000000000000000007bffffffffffffffffffffffffffffffffffffffffffffffffffffffff19166020820180517bffffffffffffffffffffffffffffffffffffffffffffffffffffffff83818316178352505050506107e2565b5050565b6107de828260405160240161075c92919061109f565b6040516020818303038152906040527f4b5c4277000000000000000000000000000000000000000000000000000000007bffffffffffffffffffffffffffffffffffffffffffffffffffffffff19166020820180517bffffffffffffffffffffffffffffffffffffffffffffffffffffffff83818316178352505050506107e2565b5050565b6107f9816107f16107fc61081d565b63ffffffff16565b50565b60006a636f6e736f6c652e6c6f679050600080835160208501845afa505050565b6108ae819050919050565b82805461083490610de7565b90600052602060002090601f016020900481019282610856576000855561089d565b82601f1061086f57805160ff191683800117855561089d565b8280016001018555821561089d579182015b8281111561089c578251825591602001919060010190610881565b5b5090506108aa91906108b8565b5090565b6108b66110d6565b565b5b808211156108d15760008160009055506001016108b9565b5090565b600081519050919050565b600082825260208201905092915050565b6000819050602082019050919050565b600073ffffffffffffffffffffffffffffffffffffffff82169050919050565b600061092c82610901565b9050919050565b61093c81610921565b82525050565b6000819050919050565b61095581610942565b82525050565b600081519050919050565b600082825260208201905092915050565b60005b8381101561099557808201518184015260208101905061097a565b838111156109a4576000848401525b50505050565b6000601f19601f8301169050919050565b60006109c68261095b565b6109d08185610966565b93506109e0818560208601610977565b6109e9816109aa565b840191505092915050565b600060c083016000830151610a0c6000860182610933565b506020830151610a1f6020860182610933565b506040830151610a32604086018261094c565b5060608301518482036060860152610a4a82826109bb565b9150506080830151610a5f608086018261094c565b5060a083015184820360a0860152610a7782826109bb565b9150508091505092915050565b6000610a9083836109f4565b905092915050565b6000602082019050919050565b6000610ab0826108d5565b610aba81856108e0565b935083602082028501610acc856108f1565b8060005b85811015610b085784840389528151610ae98582610a84565b9450610af483610a98565b925060208a01995050600181019050610ad0565b50829750879550505050505092915050565b60006020820190508181036000830152610b348184610aa5565b905092915050565b610b4581610942565b82525050565b6000602082019050610b606000830184610b3c565b92915050565b6000604051905090565b600080fd5b600080fd5b6000610b8582610901565b9050919050565b610b9581610b7a565b8114610ba057600080fd5b50565b600081359050610bb281610b8c565b92915050565b610bc181610942565b8114610bcc57600080fd5b50565b600081359050610bde81610bb8565b92915050565b600080fd5b600080fd5b7f4e487b7100000000000000000000000000000000000000000000000000000000600052604160045260246000fd5b610c26826109aa565b810181811067ffffffffffffffff82111715610c4557610c44610bee565b5b80604052505050565b6000610c58610b66565b9050610c648282610c1d565b919050565b600067ffffffffffffffff821115610c8457610c83610bee565b5b610c8d826109aa565b9050602081019050919050565b82818337600083830152505050565b6000610cbc610cb784610c69565b610c4e565b905082815260208101848484011115610cd857610cd7610be9565b5b610ce3848285610c9a565b509392505050565b600082601f830112610d0057610cff610be4565b5b8135610d10848260208601610ca9565b91505092915050565b60008060008060808587031215610d3357610d32610b70565b5b6000610d4187828801610ba3565b9450506020610d5287828801610bcf565b935050604085013567ffffffffffffffff811115610d7357610d72610b75565b5b610d7f87828801610ceb565b925050606085013567ffffffffffffffff811115610da057610d9f610b75565b5b610dac87828801610ceb565b91505092959194509250565b7f4e487b7100000000000000000000000000000000000000000000000000000000600052602260045260246000fd5b60006002820490506001821680610dff57607f821691505b60208210811415610e1357610e12610db8565b5b50919050565b7f4e487b7100000000000000000000000000000000000000000000000000000000600052601160045260246000fd5b6000610e5382610942565b9150610e5e83610942565b9250827fffffffffffffffffffffffffffffffffffffffffffffffffffffffffffffffff03821115610e9357610e92610e19565b5b828201905092915050565b610ea781610921565b82525050565b6000819050919050565b6000610ed2610ecd610ec884610901565b610ead565b610901565b9050919050565b6000610ee482610eb7565b9050919050565b6000610ef682610ed9565b9050919050565b610f0681610eeb565b82525050565b600082825260208201905092915050565b6000610f288261095b565b610f328185610f0c565b9350610f42818560208601610977565b610f4b816109aa565b840191505092915050565b600060c082019050610f6b6000830189610e9e565b610f786020830188610efd565b610f856040830187610b3c565b8181036060830152610f978186610f1d565b9050610fa66080830185610b3c565b81810360a0830152610fb88184610f1d565b9050979650505050505050565b7f66616c6c6261636b000000000000000000000000000000000000000000000000600082015250565b6000610ffb600883610f0c565b915061100682610fc5565b602082019050919050565b6000604082019050818103600083015261102a81610fee565b90506110396020830184610b3c565b92915050565b600060408201905081810360008301526110598185610f1d565b90506110686020830184610e9e565b9392505050565b600060408201905081810360008301526110898185610f1d565b90506110986020830184610b3c565b9392505050565b600060408201905081810360008301526110b98185610f1d565b905081810360208301526110cd8184610f1d565b90509392505050565b7f4e487b7100000000000000000000000000000000000000000000000000000000600052605160045260246000fdfea264697066735822122050abac4006983767f11b03d066f914f4d47f2de035b1b24e43c07aca148e0c9a64736f6c63430008090033",
  "linkReferences": {},
  "deployedLinkReferences": {}
}